:100000000C942A000C9447000C9447000C94470071
:100010000C9447000C9447000C9447000C94470044
:100020000C9447000C9447000C9447000C94470034
:100030000C9447000C9447000C9447000C94470024
:100040000C9447000C9447000C9447000C94470014
:100050000C94470011241FBECFE5D8E0DEBFCDBF12
:1000600010E0A0E6B0E0E0EFF2E102C005900D92F2
:10007000A43BB107D9F720E0A4EBB0E001C01D928A
:10008000A93BB207E1F70E94C0040C9476090C94D6
:1000900000000F931F93CF93DF931F92CDB7DEB76E
:1000A00000E010E007C062E070E0C8010E949E031B
:1000B0000F5F1F4F08301105B4F340E060E081E0AE
:1000C0000E94C50419820E943D060E94600262E3FC
:1000D00070E080E090E00E9464060E9431040E947B
:1000E000B401C197E1F760E080E00E94FB0284E781
:1000F00090E00E94E80260E081E00E94FB0286E856
:1001000090E00E94E80210E02BC0AE014F5F5F4F0D
:1001100060E081E00E94C3058981813049F48091CB
:1001200060008C3311F483EC01C08CE38093600099
:1001300062E370E080E090E00E94640660E081E0AD
:100140000E94FB02809160008C3329F48CE890E0DF
:100150000E94E80204C086E890E00E94E8021F5F67
:10016000103598F20F90DF91CF911F910F91089564
:10017000EF92FF920F931F93CF93DF931F92CDB710
:10018000DEB7CE0101960E943E040E94B401C297E0
:10019000E9F41092B40062E070E08FEF90E00E940A
:1001A000AB0381E00E9417026AE070E080E090E01B
:1001B0000E94640660E080E00E94FB0282E990E019
:1001C0000E94E8020E94B401C197E1F78981863458
:1001D000E0F18091B400813208F069C08F5F8093B4
:1001E000B400CE0101960E943E0481E00E941702F5
:1001F0006AE070E080E090E00E94640660E080E0E9
:100200000E94FB0287E990E00E94E8026EE170E044
:1002100080E090E00E9413038EE990E00E94E802E3
:1002200085EA90E00E94E80260E081E00E94FB0223
:1002300087EA90E00E94E802698170E080E090E047
:100240000E9413030EE11FE034C08E3128F010929B
:10025000B4000EE11FE02DC0843120F11092B400F3
:1002600062E070E08FEF90E00E94AB0364E670E024
:1002700080E090E00E94640610916000E12CF12C77
:100280000BC04EE150E062E070E0812F90E00E94F0
:10029000B0038FEFE81AF80A85E0E816F1048CF352
:1002A0000EE107C01092B4000EE110EF02C002E3AD
:1002B0001FE0402F50E062E070E0812F90E00E944C
:1002C000B003CE0101960E943E0481E00E94170215
:1002D0006AE070E080E090E00E94640660E080E008
:1002E0000E94FB0287E990E00E94E802602F70E024
:1002F00080E090E00E9413038EE990E00E94E80203
:100300001C33C1F018F41F3031F018C0133C69F0F1
:10031000103F31F013C085EA90E00E94E8020EC061
:100320008EEA90E00E94E80209C080EB90E00E9413
:10033000E80204C082EB90E00E94E80260E081E005
:100340000E94FB0287EA90E00E94E802698170E067
:1003500080E090E00E9413030F90DF91CF911F91F6
:100360000F91FF90EF900895CF92DF92EF92FF925E
:100370000F931F93CF93DF931F92CDB7DEB710E09B
:100380000AC0E12FF0E0E359FF4F41E0608181E0D6
:100390000E9444051F5F1330A0F300E03BC0C02E55
:1003A000D12CF601E359FF4F40E0608181E00E94CB
:1003B000440510E024C0E12EF12CF701E659FF4F6F
:1003C000AE014F5F5F4F608181E00E94C30599815C
:1003D000911114C0F701E659FF4F41E0608181E0BF
:1003E0000E944405C701880F991F8E0D9F1D8F59CC
:1003F0009F4FFC01EC0DFD1D80810FC01F5F13306E
:10040000D0F2F601E359FF4F41E0608181E00E94A4
:1004100044050F5F033018F280E00F90DF91CF9119
:100420001F910F91FF90EF90DF90CF900895CF93A1
:10043000C82F0E943D0640E061E080E00E94440534
:1004400040E062E080E00E94440540E063E080E03C
:100450000E9444058BB39C2F907F8F70892B8BBBA0
:1004600041E063E080E00E94440561E070E080E0EC
:1004700090E00E94640640E063E080E00E94440552
:1004800020E1C29FC00111249BB39F70892B8BBBBD
:1004900041E063E080E00E94440561E070E080E0BC
:1004A00090E00E94640640E063E080E00E94440522
:1004B00065E070E080E090E00E946406CF910895CE
:1004C0000E943D0641E061E080E00E94C50441E0F9
:1004D00062E080E00E94C50441E063E080E00E94A9
:1004E000C50441E064E080E00E94C50441E065E0AD
:1004F00080E00E94C50441E066E080E00E94C504FF
:1005000041E067E080E00E94C50464E170E080E0C3
:1005100090E00E94640683E30E94170282E30E9437
:10052000170288E20E9417028CE00E94170286E000
:100530000E94170282E00E94170281E00E941702C7
:100540000895CF93C82F41E061E080E00E94440508
:1005500040E062E080E00E94440540E063E080E02B
:100560000E9444058BB39C2F907F8F70892B8BBB8F
:1005700041E063E080E00E94440561E070E080E0DB
:1005800090E00E94640640E063E080E00E94440541
:1005900020E1C29FC00111249BB39F70892B8BBBAC
:1005A00041E063E080E00E94440561E070E080E0AB
:1005B00090E00E94640640E063E080E00E94440511
:1005C00065E070E080E090E00E946406CF910895BD
:1005D0000F931F93CF938C01C0E003C00E94A10230
:1005E000CF5FF801EC0FF11D80818111F7CFCF9122
:1005F0001F910F910895CF93DF9300D0CDB7DEB751
:1006000090E8998390EC9A83E1E0F0E0EC0FFD1F15
:10061000E80FF11D8081860F0E9417020F900F9046
:10062000DF91CF9108951F93CF93DF93CDB7DEB7BE
:100630002A970FB6F894DEBF0FBECDBF9923DCF525
:1006400090958095709561957F4F8F4F9F4F10E0EB
:1006500013C02AE030E040E050E00E943509E1E0BC
:10066000F0E0EC0FFD1FE10FF11D605D6083622F74
:10067000732F842F952F1F5F16161706180619065D
:1006800044F3E1E0F0E0EC0FFD1FE10FF11D8DE21E
:1006900080831F5F0DC0E12FF0E0319781E090E093
:1006A0008C0F9D1FE80FF91F80810E94A10211503D
:1006B0001111F1CF39C0611571058105910521F442
:1006C00080E30E94A10230C016161706180619060C
:1006D000ACF02AC02AE030E040E050E00E9435094A
:1006E000E1E0F0E0EC0FFD1FE10FF11D605D6083C4
:1006F000622F732F842F952F1F5F01C010E01616F5
:1007000017061806190634F30DC0E12FF0E03197F3
:1007100081E090E08C0F9D1FE80FF91F80810E94FF
:10072000A10211501111F1CF2A960FB6F894DEBF35
:100730000FBECDBFDF91CF911F910895982F862FC7
:1007400041E0692F0E94C50480E0089541E00E94C5
:10075000010680E0089540E00E94010680E00895CF
:100760008F929F92AF92BF92CF92DF92EF92FF92C1
:10077000CF93DF93C82FD62F69017A0120E030E0B4
:1007800048E452E4C701B6010E949F081816CCF451
:1007900020E030E048E452E4C701B6010E94FC06C4
:1007A000209170003091710040917200509173005F
:1007B0000E94A4089B01AC01C701B6010E94FD067E
:1007C00018C0A701960160E070E088E492E40E94FE
:1007D000FC062091700030917100409172005091A0
:1007E00073000E94A4089B01AC01C701B6010E94DE
:1007F000FC0620E030E048EC52E40E94690720E06B
:1008000030E048EC52E40E94A4086B017C019B019B
:10081000AC0160E070E088EC92E40E94FC064B01C1
:100820005C016D2F8C2F0E94A603C701B6010E94A8
:10083000E2070E9464066D2F8C2F0E94AB03C50156
:10084000B4010E94E2070E94640680E0DF91CF912C
:10085000FF90EF90DF90CF90BF90AF909F908F90E0
:10086000089541E061E083E00E94C50440E062E059
:1008700083E00E94C5040E94D50608950F931F933C
:10088000CF93DF9300D01F92CDB7DEB78C011982D2
:100890001B821A8241E061E083E00E9444056AE025
:1008A00070E080E090E00E94A00640E061E083E01C
:1008B0000E944405AE014F5F5F4F62E083E00E94FB
:1008C000C30541E067E081E00E94440507C0AE0136
:1008D0004F5F5F4F62E083E00E94C3058981811111
:1008E000F6CF0E94E80607C0AE014F5F5F4F62E09F
:1008F00083E00E94C30589818823B1F341E065E06C
:1009000081E00E94440580E090E00E94F90607C063
:10091000AE014F5F5F4F62E083E00E94C3058981B3
:100920008111F6CFCE0102960E94F30641E066E007
:1009300081E00E9444056A817B81660F771F660F04
:10094000771F660F771F80E090E00E94110826E96C
:1009500033E44BE85CE30E94A4080E94DB076F3F8E
:10096000710519F014F06FEF70E0F801608380E01A
:100970000F900F900F90DF91CF911F910F910895DD
:100980000E9449000E94B800FDCF442319F0413075
:10099000E9F174C0813099F028F08230E9F08330B9
:1009A00041F16EC02AB381E090E002C0880F991F28
:1009B0006A95E2F7809582238ABB80E0089527B389
:1009C00081E090E002C0880F991F6A95E2F7809558
:1009D000822387BB80E0089524B381E090E002C0C9
:1009E000880F991F6A95E2F78095822384BB80E087
:1009F000089521B381E090E002C0880F991F6A95A5
:100A0000E2F78095822381BB80E00895813091F0E8
:100A100028F08230D9F0833029F134C02AB381E044
:100A200090E002C0880F991F6A95E2F7822B8ABB7B
:100A300080E0089527B381E090E002C0880F991FFD
:100A40006A95E2F7822B87BB80E0089524B381E0AA
:100A500090E002C0880F991F6A95E2F7822B84BB51
:100A600080E0089521B381E090E002C0880F991FD3
:100A70006A95E2F7822B81BB80E0089581E00895BA
:100A800081E0089581E00895442319F04130E9F1AF
:100A900074C0813099F028F08230E9F0833041F160
:100AA0006EC02BB381E090E002C0880F991F6A9559
:100AB000E2F7809582238BBB80E0089528B381E024
:100AC00090E002C0880F991F6A95E2F78095822313
:100AD00088BB80E0089525B381E090E002C0880FD4
:100AE000991F6A95E2F78095822385BB80E008957F
:100AF00022B381E090E002C0880F991F6A95E2F767
:100B00008095822382BB80E00895813091F028F0A7
:100B10008230D9F0833029F134C02BB381E090E0EA
:100B200002C0880F991F6A95E2F7822B8BBB80E089
:100B3000089528B381E090E002C0880F991F6A955C
:100B4000E2F7822B88BB80E0089525B381E090E036
:100B500002C0880F991F6A95E2F7822B85BB80E05F
:100B6000089522B381E090E002C0880F991F6A9532
:100B7000E2F7822B82BB80E0089581E0089581E056
:100B8000089581E00895813099F028F08230E9F0ED
:100B9000833041F134C089B390E002C095958795C8
:100BA0006A95E2F7817089BBFA01808380E008953D
:100BB00086B390E002C0959587956A95E2F78170BB
:100BC00086BBFA01808380E0089583B390E002C081
:100BD000959587956A95E2F7817083BBFA018083CA
:100BE00080E0089580B390E002C0959587956A955E
:100BF000E2F7817080BBFA01808380E0089581E094
:100C00000895613099F028F06230E9F0633041F1E5
:100C10000895411105C09BB3809589238BBB08952E
:100C2000413051F59BB3892B8BBB0895411105C011
:100C300098B38095892388BB08954130E9F498B32F
:100C4000892B88BB0895411105C095B380958923F0
:100C500085BB0895413081F495B3892B85BB0895F8
:100C6000411105C092B38095892382BB089541301C
:100C700019F492B3892B82BB089583B78F7783BF12
:100C800083B78F7B83BF83B7877F83BF83B78F7E15
:100C900083BF83B78F7D83BF80E0089583B7816072
:100CA00083BF83B7826083BF83B78B7F83BF80E0BE
:100CB000089583B78E7F83BF83B78D7F83BF83B74C
:100CC0008B7F83BF80E008950E9411082FE632E1F8
:100CD00043E050E40E9469070E94E2076093B50078
:100CE0007093B6008093B7009093B80012BE0E9434
:100CF0004E0640E050E0BA010AC008B600FEFDCF43
:100D000088B7816088BF4F5F5F4F6F4F7F4F809183
:100D1000B5009091B600A091B700B091B800481707
:100D200059076A077B0748F31092B5001092B60086
:100D30001092B7001092B8000E94590680E0089502
:100D4000DC01CB01072E7BE0B695A795979587959B
:100D50007A95D1F7702D8093B5009093B600A0934B
:100D6000B700B093B80012BE0E944E0640E050E0BB
:100D7000BA010AC008B600FEFDCF88B7816088BFFF
:100D80004F5F5F4F6F4F7F4F8091B5009091B600DE
:100D9000A091B700B091B800481759076A077B07C0
:100DA00048F30E94590680E008958FB58E7F8FBD6D
:100DB0008FB58D7F8FBD8EB5877F8EBD8EB58F7EB3
:100DC0008EBD8FB584608FBD8FB588608FBD08954F
:100DD0008EB581608EBD8EB582608EBD8EB58B7FE7
:100DE0008EBD80E008952CB53DB5FC013183208394
:100DF00008959DBD8CBD08955058BB27AA270E9419
:100E000014070C9465080E94570838F00E945E0889
:100E100020F039F49F3F19F426F40C9454080EF492
:100E2000E095E7FB0C944E08E92F0E94760858F3F2
:100E3000BA17620773078407950720F079F4A6F5BF
:100E40000C9498080EF4E0950B2EBA2FA02D0B01F0
:100E5000B90190010C01CA01A0011124FF27591BFF
:100E600099F0593F50F4503E68F11A16F040A22F05
:100E7000232F342F4427585FF3CF46953795279576
:100E8000A795F0405395C9F77EF41F16BA0B620B75
:100E9000730B840BBAF09150A1F0FF0FBB1F661FBC
:100EA000771F881FC2F70EC0BA0F621F731F841FFF
:100EB00048F4879577956795B795F7959E3F08F025
:100EC000B0CF9395880F08F09927EE0F97958795E7
:100ED00008950E947D070C9465080E945E0858F0F2
:100EE0000E94570840F029F45F3F29F00C944E0807
:100EF00051110C9499080C9454080E94760868F3D8
:100F00009923B1F3552391F3951B550BBB27AA27C2
:100F100062177307840738F09F5F5F4F220F331FFC
:100F2000441FAA1FA9F335D00E2E3AF0E0E832D0C4
:100F300091505040E695001CCAF72BD0FE2F29D0C7
:100F4000660F771F881FBB1F261737074807AB0799
:100F5000B0E809F0BB0B802DBF01FF2793585F4F0E
:100F60003AF09E3F510578F00C944E080C94990885
:100F70005F3FE4F3983ED4F3869577956795B795F0
:100F8000F7959F5FC9F7880F911D9695879597F9FB
:100F90000895E1E0660F771F881FBB1F6217730774
:100FA0008407BA0720F0621B730B840BBA0BEE1F89
:100FB00088F7E09508950E94E2076894B1110C94B7
:100FC000990808950E947E0888F09F5798F0B92FDD
:100FD0009927B751B0F0E1F0660F771F881F991F6E
:100FE0001AF0BA95C9F714C0B13091F00E94980870
:100FF000B1E008950C949808672F782F8827B85F80
:1010000039F0B93FCCF3869577956795B395D9F7C5
:101010003EF490958095709561957F4F8F4F9F4FCF
:101020000895E89409C097FB3EF4909580957095DB
:1010300061957F4F8F4F9F4F9923A9F0F92F96E924
:10104000BB279395F695879577956795B795F11199
:10105000F8CFFAF4BB0F11F460FF1BC06F5F7F4F36
:101060008F4F9F4F16C0882311F096E911C0772348
:1010700021F09EE8872F762F05C0662371F096E851
:10108000862F70E060E02AF09A95660F771F881F20
:10109000DAF7880F9695879597F9089597F99F67DE
:1010A00080E870E060E008959FEF80EC08950024F0
:1010B0000A941616170618060906089500240A94BD
:1010C00012161306140605060895092E0394000C43
:1010D00011F4882352F0BB0F40F4BF2B11F460FFD2
:1010E00004C06F5F7F4F8F4F9F4F089557FD9058FB
:1010F000440F551F59F05F3F71F04795880F97FBDC
:10110000991F61F09F3F79F0879508951216130695
:101110001406551FF2CF4695F1DF08C016161706C4
:101120001806991FF1CF86957105610508940895F9
:10113000E894BB2766277727CB0197F908950E948B
:10114000110908F48FEF08950E94B7080C94650800
:101150000E94570838F00E945E0820F0952311F095
:101160000C944E080C94540811240C9499080E9475
:10117000760870F3959FC1F3950F50E0551F629F5D
:10118000F001729FBB27F00DB11D639FAA27F00DE0
:10119000B11DAA1F649F6627B00DA11D661F829F07
:1011A0002227B00DA11D621F739FB00DA11D621FEC
:1011B000839FA00D611D221F749F3327A00D611D09
:1011C000231F849F600D211D822F762F6A2F1124EB
:1011D0009F5750409AF0F1F088234AF0EE0FFF1F1E
:1011E000BB1F661F771F881F91505040A9F79E3F75
:1011F000510580F00C944E080C9499085F3FE4F37D
:10120000983ED4F3869577956795B795F795E795CA
:101210009F5FC1F7FE2B880F911D9695879597F9D3
:101220000895990F0008550FAA0BE0E8FEEF161677
:101230001706E807F907C0F012161306E407F507CA
:1012400098F0621B730B840B950B39F40A2661F03E
:10125000232B242B252B21F408950A2609F4A140E1
:10126000A6958FEF811D811D0895052E97FB1EF415
:1012700000940E944C0957FD07D00E94540907FCB6
:1012800003D04EF40C944C0950954095309521951F
:101290003F4F4F4F5F4F08959095809570956195A2
:1012A0007F4F8F4F9F4F0895A1E21A2EAA1BBB1BA1
:1012B000FD010DC0AA1FBB1FEE1FFF1FA217B30722
:1012C000E407F50720F0A21BB30BE40BF50B661F38
:1012D000771F881F991F1A9469F7609570958095FC
:1012E00090959B01AC01BD01CF010895F894FFCF0B
:1012F000C331323334353637383902030405060733
:1013000031082C3D536574206465662E20726F741D
:101310006174696F6E007269676874006C656674E9
:10132000200053746F700053706565643A00252087
:101330006469723A004600446973742E3A004200B0
:0413400052004C000B
:00000001FF
